{
  "_format": "hh-sol-artifact-1",
  "contractName": "TokenAndEthLocker",
  "sourceName": "contracts/TokenAndEthLocker.sol",
  "abi": [
    {
      "inputs": [],
      "stateMutability": "nonpayable",
      "type": "constructor"
    },
    {
      "anonymous": false,
      "inputs": [
        {
          "indexed": true,
          "internalType": "address",
          "name": "sender",
          "type": "address"
        },
        {
          "indexed": false,
          "internalType": "uint256",
          "name": "amount",
          "type": "uint256"
        },
        {
          "indexed": false,
          "internalType": "string",
          "name": "targetChain",
          "type": "string"
        },
        {
          "indexed": false,
          "internalType": "string",
          "name": "targetAddress",
          "type": "string"
        }
      ],
      "name": "EthLocked",
      "type": "event"
    },
    {
      "anonymous": false,
      "inputs": [
        {
          "indexed": true,
          "internalType": "address",
          "name": "token",
          "type": "address"
        },
        {
          "indexed": true,
          "internalType": "address",
          "name": "sender",
          "type": "address"
        },
        {
          "indexed": false,
          "internalType": "uint256",
          "name": "amount",
          "type": "uint256"
        },
        {
          "indexed": false,
          "internalType": "string",
          "name": "targetChain",
          "type": "string"
        },
        {
          "indexed": false,
          "internalType": "string",
          "name": "targetAddress",
          "type": "string"
        }
      ],
      "name": "TokenLocked",
      "type": "event"
    },
    {
      "inputs": [
        {
          "internalType": "address",
          "name": "newOwner",
          "type": "address"
        }
      ],
      "name": "changeOwner",
      "outputs": [],
      "stateMutability": "nonpayable",
      "type": "function"
    },
    {
      "inputs": [
        {
          "internalType": "string",
          "name": "targetChain",
          "type": "string"
        },
        {
          "internalType": "string",
          "name": "targetAddress",
          "type": "string"
        }
      ],
      "name": "lockEth",
      "outputs": [],
      "stateMutability": "payable",
      "type": "function"
    },
    {
      "inputs": [
        {
          "internalType": "address",
          "name": "token",
          "type": "address"
        },
        {
          "internalType": "uint256",
          "name": "amount",
          "type": "uint256"
        },
        {
          "internalType": "string",
          "name": "targetChain",
          "type": "string"
        },
        {
          "internalType": "string",
          "name": "targetAddress",
          "type": "string"
        }
      ],
      "name": "lockTokens",
      "outputs": [],
      "stateMutability": "nonpayable",
      "type": "function"
    },
    {
      "inputs": [],
      "name": "owner",
      "outputs": [
        {
          "internalType": "address",
          "name": "",
          "type": "address"
        }
      ],
      "stateMutability": "view",
      "type": "function"
    },
    {
      "inputs": [
        {
          "internalType": "uint256",
          "name": "amount",
          "type": "uint256"
        }
      ],
      "name": "withdrawEth",
      "outputs": [],
      "stateMutability": "nonpayable",
      "type": "function"
    },
    {
      "inputs": [
        {
          "internalType": "address",
          "name": "token",
          "type": "address"
        },
        {
          "internalType": "uint256",
          "name": "amount",
          "type": "uint256"
        }
      ],
      "name": "withdrawTokens",
      "outputs": [],
      "stateMutability": "nonpayable",
      "type": "function"
    }
  ],
  "bytecode": "0x608060405234801561001057600080fd5b50336000806101000a81548173ffffffffffffffffffffffffffffffffffffffff021916908373ffffffffffffffffffffffffffffffffffffffff160217905550611152806100606000396000f3fe6080604052600436106100555760003560e01c806306b091f91461005a5780638da5cb5b14610083578063a6f9dae1146100ae578063c26748ad146100d7578063c311d049146100f3578063f9aca9ba1461011c575b600080fd5b34801561006657600080fd5b50610081600480360381019061007c91906108b7565b610145565b005b34801561008f57600080fd5b506100986102f7565b6040516100a59190610906565b60405180910390f35b3480156100ba57600080fd5b506100d560048036038101906100d09190610921565b61031b565b005b6100f160048036038101906100ec9190610a94565b61045b565b005b3480156100ff57600080fd5b5061011a60048036038101906101159190610b0c565b6104f4565b005b34801561012857600080fd5b50610143600480360381019061013e9190610b39565b61062f565b005b60008054906101000a900473ffffffffffffffffffffffffffffffffffffffff1673ffffffffffffffffffffffffffffffffffffffff163373ffffffffffffffffffffffffffffffffffffffff16146101d3576040517f08c379a00000000000000000000000000000000000000000000000000000000081526004016101ca90610c5b565b60405180910390fd5b60008111610216576040517f08c379a000000000000000000000000000000000000000000000000000000000815260040161020d90610cc7565b60405180910390fd5b8173ffffffffffffffffffffffffffffffffffffffff1663a9059cbb60008054906101000a900473ffffffffffffffffffffffffffffffffffffffff16836040518363ffffffff1660e01b8152600401610271929190610cf6565b6020604051808303816000875af1158015610290573d6000803e3d6000fd5b505050506040513d601f19601f820116820180604052508101906102b49190610d57565b6102f3576040517f08c379a00000000000000000000000000000000000000000000000000000000081526004016102ea90610dd0565b60405180910390fd5b5050565b60008054906101000a900473ffffffffffffffffffffffffffffffffffffffff1681565b60008054906101000a900473ffffffffffffffffffffffffffffffffffffffff1673ffffffffffffffffffffffffffffffffffffffff163373ffffffffffffffffffffffffffffffffffffffff16146103a9576040517f08c379a00000000000000000000000000000000000000000000000000000000081526004016103a090610c5b565b60405180910390fd5b600073ffffffffffffffffffffffffffffffffffffffff168173ffffffffffffffffffffffffffffffffffffffff1603610418576040517f08c379a000000000000000000000000000000000000000000000000000000000815260040161040f90610e3c565b60405180910390fd5b806000806101000a81548173ffffffffffffffffffffffffffffffffffffffff021916908373ffffffffffffffffffffffffffffffffffffffff16021790555050565b6000341161049e576040517f08c379a000000000000000000000000000000000000000000000000000000000815260040161049590610ece565b60405180910390fd5b3373ffffffffffffffffffffffffffffffffffffffff167f55213c1921bda795640c1ade0b50ca9a37dbb9ba2f6e8e2d5da271e270ecd8793484846040516104e893929190610f5c565b60405180910390a25050565b60008054906101000a900473ffffffffffffffffffffffffffffffffffffffff1673ffffffffffffffffffffffffffffffffffffffff163373ffffffffffffffffffffffffffffffffffffffff1614610582576040517f08c379a000000000000000000000000000000000000000000000000000000000815260040161057990610c5b565b60405180910390fd5b478111156105c5576040517f08c379a00000000000000000000000000000000000000000000000000000000081526004016105bc90610fed565b60405180910390fd5b60008054906101000a900473ffffffffffffffffffffffffffffffffffffffff1673ffffffffffffffffffffffffffffffffffffffff166108fc829081150290604051600060405180830381858888f1935050505015801561062b573d6000803e3d6000fd5b5050565b600073ffffffffffffffffffffffffffffffffffffffff168473ffffffffffffffffffffffffffffffffffffffff160361069e576040517f08c379a000000000000000000000000000000000000000000000000000000000815260040161069590611059565b60405180910390fd5b600083116106e1576040517f08c379a00000000000000000000000000000000000000000000000000000000081526004016106d8906110c5565b60405180910390fd5b8373ffffffffffffffffffffffffffffffffffffffff166323b872dd3330866040518463ffffffff1660e01b815260040161071e939291906110e5565b6020604051808303816000875af115801561073d573d6000803e3d6000fd5b505050506040513d601f19601f820116820180604052508101906107619190610d57565b6107a0576040517f08c379a000000000000000000000000000000000000000000000000000000000815260040161079790610dd0565b60405180910390fd5b3373ffffffffffffffffffffffffffffffffffffffff168473ffffffffffffffffffffffffffffffffffffffff167fe8286c6c4cc9bc33f97173544f5181ff8316f0746f8c7a33fc04cff7ab97857485858560405161080193929190610f5c565b60405180910390a350505050565b6000604051905090565b600080fd5b600080fd5b600073ffffffffffffffffffffffffffffffffffffffff82169050919050565b600061084e82610823565b9050919050565b61085e81610843565b811461086957600080fd5b50565b60008135905061087b81610855565b92915050565b6000819050919050565b61089481610881565b811461089f57600080fd5b50565b6000813590506108b18161088b565b92915050565b600080604083850312156108ce576108cd610819565b5b60006108dc8582860161086c565b92505060206108ed858286016108a2565b9150509250929050565b61090081610843565b82525050565b600060208201905061091b60008301846108f7565b92915050565b60006020828403121561093757610936610819565b5b60006109458482850161086c565b91505092915050565b600080fd5b600080fd5b6000601f19601f8301169050919050565b7f4e487b7100000000000000000000000000000000000000000000000000000000600052604160045260246000fd5b6109a182610958565b810181811067ffffffffffffffff821117156109c0576109bf610969565b5b80604052505050565b60006109d361080f565b90506109df8282610998565b919050565b600067ffffffffffffffff8211156109ff576109fe610969565b5b610a0882610958565b9050602081019050919050565b82818337600083830152505050565b6000610a37610a32846109e4565b6109c9565b905082815260208101848484011115610a5357610a52610953565b5b610a5e848285610a15565b509392505050565b600082601f830112610a7b57610a7a61094e565b5b8135610a8b848260208601610a24565b91505092915050565b60008060408385031215610aab57610aaa610819565b5b600083013567ffffffffffffffff811115610ac957610ac861081e565b5b610ad585828601610a66565b925050602083013567ffffffffffffffff811115610af657610af561081e565b5b610b0285828601610a66565b9150509250929050565b600060208284031215610b2257610b21610819565b5b6000610b30848285016108a2565b91505092915050565b60008060008060808587031215610b5357610b52610819565b5b6000610b618782880161086c565b9450506020610b72878288016108a2565b935050604085013567ffffffffffffffff811115610b9357610b9261081e565b5b610b9f87828801610a66565b925050606085013567ffffffffffffffff811115610bc057610bbf61081e565b5b610bcc87828801610a66565b91505092959194509250565b600082825260208201905092915050565b7f4f6e6c79206f776e65722063616e20706572666f726d2074686973206163746960008201527f6f6e000000000000000000000000000000000000000000000000000000000000602082015250565b6000610c45602283610bd8565b9150610c5082610be9565b604082019050919050565b60006020820190508181036000830152610c7481610c38565b9050919050565b7f416d6f756e74206d75737420626520706f736974697665000000000000000000600082015250565b6000610cb1601783610bd8565b9150610cbc82610c7b565b602082019050919050565b60006020820190508181036000830152610ce081610ca4565b9050919050565b610cf081610881565b82525050565b6000604082019050610d0b60008301856108f7565b610d186020830184610ce7565b9392505050565b60008115159050919050565b610d3481610d1f565b8114610d3f57600080fd5b50565b600081519050610d5181610d2b565b92915050565b600060208284031215610d6d57610d6c610819565b5b6000610d7b84828501610d42565b91505092915050565b7f546f6b656e207472616e73666572206661696c65640000000000000000000000600082015250565b6000610dba601583610bd8565b9150610dc582610d84565b602082019050919050565b60006020820190508181036000830152610de981610dad565b9050919050565b7f496e76616c6964206e6577206f776e6572206164647265737300000000000000600082015250565b6000610e26601983610bd8565b9150610e3182610df0565b602082019050919050565b60006020820190508181036000830152610e5581610e19565b9050919050565b7f45544820616d6f756e74206d7573742062652067726561746572207468616e2060008201527f7a65726f00000000000000000000000000000000000000000000000000000000602082015250565b6000610eb8602483610bd8565b9150610ec382610e5c565b604082019050919050565b60006020820190508181036000830152610ee781610eab565b9050919050565b600081519050919050565b60005b83811015610f17578082015181840152602081019050610efc565b60008484015250505050565b6000610f2e82610eee565b610f388185610bd8565b9350610f48818560208601610ef9565b610f5181610958565b840191505092915050565b6000606082019050610f716000830186610ce7565b8181036020830152610f838185610f23565b90508181036040830152610f978184610f23565b9050949350505050565b7f496e73756666696369656e742062616c616e6365000000000000000000000000600082015250565b6000610fd7601483610bd8565b9150610fe282610fa1565b602082019050919050565b6000602082019050818103600083015261100681610fca565b9050919050565b7f546f6b656e20616464726573732063616e6e6f74206265207a65726f00000000600082015250565b6000611043601c83610bd8565b915061104e8261100d565b602082019050919050565b6000602082019050818103600083015261107281611036565b9050919050565b7f416d6f756e74206d7573742062652067726561746572207468616e207a65726f600082015250565b60006110af602083610bd8565b91506110ba82611079565b602082019050919050565b600060208201905081810360008301526110de816110a2565b9050919050565b60006060820190506110fa60008301866108f7565b61110760208301856108f7565b6111146040830184610ce7565b94935050505056fea2646970667358221220869c38738d7430b6814297ba0eae8fa440cb1426212c145d040ebe154dbeacff64736f6c63430008140033",
  "linkReferences": {},
  "deployedLinkReferences": {}
}